{
  "contractName": "ERC721MadNft",
  "abi": [
    {
      "anonymous": false,
      "inputs": [
        {
          "indexed": true,
          "internalType": "address",
          "name": "owner",
          "type": "address"
        },
        {
          "indexed": true,
          "internalType": "address",
          "name": "approved",
          "type": "address"
        },
        {
          "indexed": true,
          "internalType": "uint256",
          "name": "tokenId",
          "type": "uint256"
        }
      ],
      "name": "Approval",
      "type": "event"
    },
    {
      "anonymous": false,
      "inputs": [
        {
          "indexed": true,
          "internalType": "address",
          "name": "owner",
          "type": "address"
        },
        {
          "indexed": true,
          "internalType": "address",
          "name": "operator",
          "type": "address"
        },
        {
          "indexed": false,
          "internalType": "bool",
          "name": "approved",
          "type": "bool"
        }
      ],
      "name": "ApprovalForAll",
      "type": "event"
    },
    {
      "anonymous": false,
      "inputs": [
        {
          "indexed": false,
          "internalType": "string",
          "name": "newBaseURI",
          "type": "string"
        }
      ],
      "name": "BaseUriChanged",
      "type": "event"
    },
    {
      "anonymous": false,
      "inputs": [
        {
          "indexed": false,
          "internalType": "address",
          "name": "owner",
          "type": "address"
        },
        {
          "indexed": false,
          "internalType": "string",
          "name": "name",
          "type": "string"
        },
        {
          "indexed": false,
          "internalType": "string",
          "name": "symbol",
          "type": "string"
        }
      ],
      "name": "CreateERC721MadNft",
      "type": "event"
    },
    {
      "anonymous": false,
      "inputs": [
        {
          "indexed": false,
          "internalType": "uint256",
          "name": "tokenId",
          "type": "uint256"
        },
        {
          "components": [
            {
              "internalType": "address payable",
              "name": "account",
              "type": "address"
            },
            {
              "internalType": "uint96",
              "name": "value",
              "type": "uint96"
            }
          ],
          "indexed": false,
          "internalType": "struct LibPart.Part[]",
          "name": "creators",
          "type": "tuple[]"
        }
      ],
      "name": "Creators",
      "type": "event"
    },
    {
      "anonymous": false,
      "inputs": [
        {
          "indexed": true,
          "internalType": "address",
          "name": "operator",
          "type": "address"
        },
        {
          "indexed": false,
          "internalType": "bool",
          "name": "hasApproval",
          "type": "bool"
        }
      ],
      "name": "DefaultApproval",
      "type": "event"
    },
    {
      "anonymous": false,
      "inputs": [
        {
          "indexed": true,
          "internalType": "address",
          "name": "previousOwner",
          "type": "address"
        },
        {
          "indexed": true,
          "internalType": "address",
          "name": "newOwner",
          "type": "address"
        }
      ],
      "name": "OwnershipTransferred",
      "type": "event"
    },
    {
      "anonymous": false,
      "inputs": [
        {
          "indexed": false,
          "internalType": "address",
          "name": "account",
          "type": "address"
        }
      ],
      "name": "Paused",
      "type": "event"
    },
    {
      "anonymous": false,
      "inputs": [
        {
          "indexed": true,
          "internalType": "bytes32",
          "name": "role",
          "type": "bytes32"
        },
        {
          "indexed": true,
          "internalType": "bytes32",
          "name": "previousAdminRole",
          "type": "bytes32"
        },
        {
          "indexed": true,
          "internalType": "bytes32",
          "name": "newAdminRole",
          "type": "bytes32"
        }
      ],
      "name": "RoleAdminChanged",
      "type": "event"
    },
    {
      "anonymous": false,
      "inputs": [
        {
          "indexed": true,
          "internalType": "bytes32",
          "name": "role",
          "type": "bytes32"
        },
        {
          "indexed": true,
          "internalType": "address",
          "name": "account",
          "type": "address"
        },
        {
          "indexed": true,
          "internalType": "address",
          "name": "sender",
          "type": "address"
        }
      ],
      "name": "RoleGranted",
      "type": "event"
    },
    {
      "anonymous": false,
      "inputs": [
        {
          "indexed": true,
          "internalType": "bytes32",
          "name": "role",
          "type": "bytes32"
        },
        {
          "indexed": true,
          "internalType": "address",
          "name": "account",
          "type": "address"
        },
        {
          "indexed": true,
          "internalType": "address",
          "name": "sender",
          "type": "address"
        }
      ],
      "name": "RoleRevoked",
      "type": "event"
    },
    {
      "anonymous": false,
      "inputs": [
        {
          "indexed": false,
          "internalType": "uint256",
          "name": "tokenId",
          "type": "uint256"
        },
        {
          "indexed": false,
          "internalType": "address[]",
          "name": "recipients",
          "type": "address[]"
        },
        {
          "indexed": false,
          "internalType": "uint256[]",
          "name": "bps",
          "type": "uint256[]"
        }
      ],
      "name": "SecondarySaleFees",
      "type": "event"
    },
    {
      "anonymous": false,
      "inputs": [
        {
          "indexed": true,
          "internalType": "address",
          "name": "from",
          "type": "address"
        },
        {
          "indexed": true,
          "internalType": "address",
          "name": "to",
          "type": "address"
        },
        {
          "indexed": true,
          "internalType": "uint256",
          "name": "tokenId",
          "type": "uint256"
        }
      ],
      "name": "Transfer",
      "type": "event"
    },
    {
      "anonymous": false,
      "inputs": [
        {
          "indexed": false,
          "internalType": "address",
          "name": "account",
          "type": "address"
        }
      ],
      "name": "Unpaused",
      "type": "event"
    },
    {
      "inputs": [],
      "name": "DEFAULT_ADMIN_ROLE",
      "outputs": [
        {
          "internalType": "bytes32",
          "name": "",
          "type": "bytes32"
        }
      ],
      "stateMutability": "view",
      "type": "function"
    },
    {
      "inputs": [],
      "name": "PAUSER_ROLE",
      "outputs": [
        {
          "internalType": "bytes32",
          "name": "",
          "type": "bytes32"
        }
      ],
      "stateMutability": "view",
      "type": "function"
    },
    {
      "inputs": [
        {
          "internalType": "address",
          "name": "to",
          "type": "address"
        },
        {
          "internalType": "uint256",
          "name": "tokenId",
          "type": "uint256"
        }
      ],
      "name": "approve",
      "outputs": [],
      "stateMutability": "nonpayable",
      "type": "function"
    },
    {
      "inputs": [
        {
          "internalType": "address",
          "name": "owner",
          "type": "address"
        }
      ],
      "name": "balanceOf",
      "outputs": [
        {
          "internalType": "uint256",
          "name": "",
          "type": "uint256"
        }
      ],
      "stateMutability": "view",
      "type": "function"
    },
    {
      "inputs": [],
      "name": "baseURI",
      "outputs": [
        {
          "internalType": "string",
          "name": "",
          "type": "string"
        }
      ],
      "stateMutability": "view",
      "type": "function"
    },
    {
      "inputs": [
        {
          "internalType": "uint256",
          "name": "tokenId",
          "type": "uint256"
        }
      ],
      "name": "burn",
      "outputs": [],
      "stateMutability": "nonpayable",
      "type": "function"
    },
    {
      "inputs": [],
      "name": "contractURI",
      "outputs": [
        {
          "internalType": "string",
          "name": "",
          "type": "string"
        }
      ],
      "stateMutability": "view",
      "type": "function"
    },
    {
      "inputs": [
        {
          "internalType": "uint256",
          "name": "tokenId",
          "type": "uint256"
        }
      ],
      "name": "getApproved",
      "outputs": [
        {
          "internalType": "address",
          "name": "",
          "type": "address"
        }
      ],
      "stateMutability": "view",
      "type": "function"
    },
    {
      "inputs": [
        {
          "internalType": "uint256",
          "name": "_id",
          "type": "uint256"
        }
      ],
      "name": "getCreators",
      "outputs": [
        {
          "components": [
            {
              "internalType": "address payable",
              "name": "account",
              "type": "address"
            },
            {
              "internalType": "uint96",
              "name": "value",
              "type": "uint96"
            }
          ],
          "internalType": "struct LibPart.Part[]",
          "name": "",
          "type": "tuple[]"
        }
      ],
      "stateMutability": "view",
      "type": "function"
    },
    {
      "inputs": [
        {
          "internalType": "uint256",
          "name": "id",
          "type": "uint256"
        }
      ],
      "name": "getFeeBps",
      "outputs": [
        {
          "internalType": "uint256[]",
          "name": "",
          "type": "uint256[]"
        }
      ],
      "stateMutability": "view",
      "type": "function"
    },
    {
      "inputs": [
        {
          "internalType": "uint256",
          "name": "id",
          "type": "uint256"
        }
      ],
      "name": "getFeeRecipients",
      "outputs": [
        {
          "internalType": "address payable[]",
          "name": "",
          "type": "address[]"
        }
      ],
      "stateMutability": "view",
      "type": "function"
    },
    {
      "inputs": [
        {
          "internalType": "bytes32",
          "name": "role",
          "type": "bytes32"
        }
      ],
      "name": "getRoleAdmin",
      "outputs": [
        {
          "internalType": "bytes32",
          "name": "",
          "type": "bytes32"
        }
      ],
      "stateMutability": "view",
      "type": "function"
    },
    {
      "inputs": [
        {
          "internalType": "bytes32",
          "name": "role",
          "type": "bytes32"
        },
        {
          "internalType": "address",
          "name": "account",
          "type": "address"
        }
      ],
      "name": "grantRole",
      "outputs": [],
      "stateMutability": "nonpayable",
      "type": "function"
    },
    {
      "inputs": [
        {
          "internalType": "bytes32",
          "name": "role",
          "type": "bytes32"
        },
        {
          "internalType": "address",
          "name": "account",
          "type": "address"
        }
      ],
      "name": "hasRole",
      "outputs": [
        {
          "internalType": "bool",
          "name": "",
          "type": "bool"
        }
      ],
      "stateMutability": "view",
      "type": "function"
    },
    {
      "inputs": [
        {
          "internalType": "address",
          "name": "owner",
          "type": "address"
        },
        {
          "internalType": "address",
          "name": "operator",
          "type": "address"
        }
      ],
      "name": "isApprovedForAll",
      "outputs": [
        {
          "internalType": "bool",
          "name": "",
          "type": "bool"
        }
      ],
      "stateMutability": "view",
      "type": "function"
    },
    {
      "inputs": [
        {
          "components": [
            {
              "internalType": "uint256",
              "name": "tokenId",
              "type": "uint256"
            },
            {
              "internalType": "string",
              "name": "tokenURI",
              "type": "string"
            },
            {
              "components": [
                {
                  "internalType": "address payable",
                  "name": "account",
                  "type": "address"
                },
                {
                  "internalType": "uint96",
                  "name": "value",
                  "type": "uint96"
                }
              ],
              "internalType": "struct LibPart.Part[]",
              "name": "creators",
              "type": "tuple[]"
            },
            {
              "components": [
                {
                  "internalType": "address payable",
                  "name": "account",
                  "type": "address"
                },
                {
                  "internalType": "uint96",
                  "name": "value",
                  "type": "uint96"
                }
              ],
              "internalType": "struct LibPart.Part[]",
              "name": "royalties",
              "type": "tuple[]"
            },
            {
              "internalType": "bytes[]",
              "name": "signatures",
              "type": "bytes[]"
            }
          ],
          "internalType": "struct LibERC721LazyMint.Mint721Data",
          "name": "data",
          "type": "tuple"
        },
        {
          "internalType": "address",
          "name": "to",
          "type": "address"
        }
      ],
      "name": "mintAndTransfer",
      "outputs": [],
      "stateMutability": "nonpayable",
      "type": "function"
    },
    {
      "inputs": [],
      "name": "name",
      "outputs": [
        {
          "internalType": "string",
          "name": "",
          "type": "string"
        }
      ],
      "stateMutability": "view",
      "type": "function"
    },
    {
      "inputs": [],
      "name": "owner",
      "outputs": [
        {
          "internalType": "address",
          "name": "",
          "type": "address"
        }
      ],
      "stateMutability": "view",
      "type": "function"
    },
    {
      "inputs": [
        {
          "internalType": "uint256",
          "name": "tokenId",
          "type": "uint256"
        }
      ],
      "name": "ownerOf",
      "outputs": [
        {
          "internalType": "address",
          "name": "",
          "type": "address"
        }
      ],
      "stateMutability": "view",
      "type": "function"
    },
    {
      "inputs": [],
      "name": "pause",
      "outputs": [],
      "stateMutability": "nonpayable",
      "type": "function"
    },
    {
      "inputs": [],
      "name": "paused",
      "outputs": [
        {
          "internalType": "bool",
          "name": "",
          "type": "bool"
        }
      ],
      "stateMutability": "view",
      "type": "function"
    },
    {
      "inputs": [],
      "name": "renounceOwnership",
      "outputs": [],
      "stateMutability": "nonpayable",
      "type": "function"
    },
    {
      "inputs": [
        {
          "internalType": "bytes32",
          "name": "role",
          "type": "bytes32"
        },
        {
          "internalType": "address",
          "name": "account",
          "type": "address"
        }
      ],
      "name": "renounceRole",
      "outputs": [],
      "stateMutability": "nonpayable",
      "type": "function"
    },
    {
      "inputs": [
        {
          "internalType": "bytes32",
          "name": "role",
          "type": "bytes32"
        },
        {
          "internalType": "address",
          "name": "account",
          "type": "address"
        }
      ],
      "name": "revokeRole",
      "outputs": [],
      "stateMutability": "nonpayable",
      "type": "function"
    },
    {
      "inputs": [
        {
          "internalType": "address",
          "name": "from",
          "type": "address"
        },
        {
          "internalType": "address",
          "name": "to",
          "type": "address"
        },
        {
          "internalType": "uint256",
          "name": "tokenId",
          "type": "uint256"
        }
      ],
      "name": "safeTransferFrom",
      "outputs": [],
      "stateMutability": "nonpayable",
      "type": "function"
    },
    {
      "inputs": [
        {
          "internalType": "address",
          "name": "from",
          "type": "address"
        },
        {
          "internalType": "address",
          "name": "to",
          "type": "address"
        },
        {
          "internalType": "uint256",
          "name": "tokenId",
          "type": "uint256"
        },
        {
          "internalType": "bytes",
          "name": "_data",
          "type": "bytes"
        }
      ],
      "name": "safeTransferFrom",
      "outputs": [],
      "stateMutability": "nonpayable",
      "type": "function"
    },
    {
      "inputs": [
        {
          "internalType": "address",
          "name": "operator",
          "type": "address"
        },
        {
          "internalType": "bool",
          "name": "approved",
          "type": "bool"
        }
      ],
      "name": "setApprovalForAll",
      "outputs": [],
      "stateMutability": "nonpayable",
      "type": "function"
    },
    {
      "inputs": [
        {
          "internalType": "string",
          "name": "newBaseURI",
          "type": "string"
        }
      ],
      "name": "setBaseURI",
      "outputs": [],
      "stateMutability": "nonpayable",
      "type": "function"
    },
    {
      "inputs": [
        {
          "internalType": "bytes4",
          "name": "interfaceId",
          "type": "bytes4"
        }
      ],
      "name": "supportsInterface",
      "outputs": [
        {
          "internalType": "bool",
          "name": "",
          "type": "bool"
        }
      ],
      "stateMutability": "view",
      "type": "function"
    },
    {
      "inputs": [],
      "name": "symbol",
      "outputs": [
        {
          "internalType": "string",
          "name": "",
          "type": "string"
        }
      ],
      "stateMutability": "view",
      "type": "function"
    },
    {
      "inputs": [
        {
          "internalType": "uint256",
          "name": "index",
          "type": "uint256"
        }
      ],
      "name": "tokenByIndex",
      "outputs": [
        {
          "internalType": "uint256",
          "name": "",
          "type": "uint256"
        }
      ],
      "stateMutability": "view",
      "type": "function"
    },
    {
      "inputs": [
        {
          "internalType": "address",
          "name": "owner",
          "type": "address"
        },
        {
          "internalType": "uint256",
          "name": "index",
          "type": "uint256"
        }
      ],
      "name": "tokenOfOwnerByIndex",
      "outputs": [
        {
          "internalType": "uint256",
          "name": "",
          "type": "uint256"
        }
      ],
      "stateMutability": "view",
      "type": "function"
    },
    {
      "inputs": [
        {
          "internalType": "uint256",
          "name": "tokenId",
          "type": "uint256"
        }
      ],
      "name": "tokenURI",
      "outputs": [
        {
          "internalType": "string",
          "name": "",
          "type": "string"
        }
      ],
      "stateMutability": "view",
      "type": "function"
    },
    {
      "inputs": [],
      "name": "totalSupply",
      "outputs": [
        {
          "internalType": "uint256",
          "name": "",
          "type": "uint256"
        }
      ],
      "stateMutability": "view",
      "type": "function"
    },
    {
      "inputs": [
        {
          "internalType": "address",
          "name": "from",
          "type": "address"
        },
        {
          "internalType": "address",
          "name": "to",
          "type": "address"
        },
        {
          "internalType": "uint256",
          "name": "tokenId",
          "type": "uint256"
        }
      ],
      "name": "transferFrom",
      "outputs": [],
      "stateMutability": "nonpayable",
      "type": "function"
    },
    {
      "inputs": [
        {
          "components": [
            {
              "internalType": "uint256",
              "name": "tokenId",
              "type": "uint256"
            },
            {
              "internalType": "string",
              "name": "tokenURI",
              "type": "string"
            },
            {
              "components": [
                {
                  "internalType": "address payable",
                  "name": "account",
                  "type": "address"
                },
                {
                  "internalType": "uint96",
                  "name": "value",
                  "type": "uint96"
                }
              ],
              "internalType": "struct LibPart.Part[]",
              "name": "creators",
              "type": "tuple[]"
            },
            {
              "components": [
                {
                  "internalType": "address payable",
                  "name": "account",
                  "type": "address"
                },
                {
                  "internalType": "uint96",
                  "name": "value",
                  "type": "uint96"
                }
              ],
              "internalType": "struct LibPart.Part[]",
              "name": "royalties",
              "type": "tuple[]"
            },
            {
              "internalType": "bytes[]",
              "name": "signatures",
              "type": "bytes[]"
            }
          ],
          "internalType": "struct LibERC721LazyMint.Mint721Data",
          "name": "data",
          "type": "tuple"
        },
        {
          "internalType": "address",
          "name": "from",
          "type": "address"
        },
        {
          "internalType": "address",
          "name": "to",
          "type": "address"
        }
      ],
      "name": "transferFromOrMint",
      "outputs": [],
      "stateMutability": "nonpayable",
      "type": "function"
    },
    {
      "inputs": [
        {
          "internalType": "address",
          "name": "newOwner",
          "type": "address"
        }
      ],
      "name": "transferOwnership",
      "outputs": [],
      "stateMutability": "nonpayable",
      "type": "function"
    },
    {
      "inputs": [],
      "name": "unpause",
      "outputs": [],
      "stateMutability": "nonpayable",
      "type": "function"
    },
    {
      "inputs": [
        {
          "internalType": "uint256",
          "name": "_id",
          "type": "uint256"
        },
        {
          "internalType": "address",
          "name": "_from",
          "type": "address"
        },
        {
          "internalType": "address",
          "name": "_to",
          "type": "address"
        }
      ],
      "name": "updateAccount",
      "outputs": [],
      "stateMutability": "nonpayable",
      "type": "function"
    },
    {
      "inputs": [
        {
          "internalType": "string",
          "name": "_name",
          "type": "string"
        },
        {
          "internalType": "string",
          "name": "_symbol",
          "type": "string"
        },
        {
          "internalType": "string",
          "name": "baseURI",
          "type": "string"
        },
        {
          "internalType": "string",
          "name": "contractURI",
          "type": "string"
        },
        {
          "internalType": "address",
          "name": "transferProxy",
          "type": "address"
        },
        {
          "internalType": "address",
          "name": "lazyTransferProxy",
          "type": "address"
        }
      ],
      "name": "__ERC721MadNft_init",
      "outputs": [],
      "stateMutability": "nonpayable",
      "type": "function"
    }
  ],
  "bytecode": "0x608060405234801561001057600080fd5b50614f38806100206000396000f3fe608060405234801561001057600080fd5b50600436106102485760003560e01c806370a082311161013b578063b88d4fde116100b8578063e07f23191161007c578063e07f231914610506578063e63ab1e914610519578063e8a3d4851461052e578063e985e9c514610536578063f2fde38b1461054957600080fd5b8063b88d4fde1461049a578063b9c4d9fb146104ad578063c87b56dd146104cd578063cb548407146104e0578063d547741f146104f357600080fd5b80638da5cb5b116100ff5780638da5cb5b1461045357806391d148541461046457806395d89b4114610477578063a217fddf1461047f578063a22cb4651461048757600080fd5b806370a08231146103fd578063715018a614610410578063832fbb29146104185780638456cb591461042b578063891be9741461043357600080fd5b80632f745c59116101c95780634f6ccce71161018d5780634f6ccce7146103b057806355f804b3146103c35780635c975abb146103d65780636352211e146103e25780636c0360eb146103f557600080fd5b80632f745c591461035c57806336568abe1461036f5780633f4ba83a1461038257806342842e0e1461038a57806342966c681461039d57600080fd5b806318160ddd1161021057806318160ddd146102ea57806322a775b61461030057806323b872dd14610313578063248a9ca3146103265780632f2ff15d1461034957600080fd5b806301ffc9a71461024d57806306fdde0314610275578063081812fc1461028a578063095ea7b3146102b55780630ebd4c7f146102ca575b600080fd5b61026061025b36600461454a565b61055c565b60405190151581526020015b60405180910390f35b61027d61056d565b60405161026c91906149e3565b61029d61029836600461450e565b610600565b6040516001600160a01b03909116815260200161026c565b6102c86102c33660046144e3565b61068d565b005b6102dd6102d836600461450e565b6107a3565b60405161026c91906149b7565b6102f26108ff565b60405190815260200161026c565b6102c861030e36600461467b565b610910565b6102c8610321366004614409565b610af5565b6102f261033436600461450e565b60009081526097602052604090206001015490565b6102c8610357366004614526565b610b27565b6102f261036a3660046144e3565b610b4d565b6102c861037d366004614526565b610b76565b6102c8610bf4565b6102c8610398366004614409565b610c7f565b6102c86103ab36600461450e565b610c9a565b6102f26103be36600461450e565b610dab565b6102c86103d1366004614582565b610db9565b6101935460ff16610260565b61029d6103f036600461450e565b610e26565b61027d610e4e565b6102f261040b3660046143b5565b610e5e565b6102c8610eea565b6102c86104263660046146bf565b610f1e565b6102c8610f47565b61044661044136600461450e565b610fce565b60405161026c91906149a4565b6033546001600160a01b031661029d565b610260610472366004614526565b61105e565b61027d611089565b6102f2600081565b6102c86104953660046144b2565b611099565b6102c86104a8366004614449565b61115f565b6104c06104bb36600461450e565b611197565b60405161026c9190614957565b61027d6104db36600461450e565b6112ef565b6102c86104ee3660046145b4565b611461565b6102c8610501366004614526565b611522565b6102c8610514366004614720565b611548565b6102f2600080516020614ec383398151915281565b61027d611599565b6102606105443660046143d1565b611628565b6102c86105573660046143b5565b611634565b6000610567826116cc565b92915050565b6060610101805461057d90614d90565b80601f01602080910402602001604051908101604052809291908181526020018280546105a990614d90565b80156105f65780601f106105cb576101008083540402835291602001916105f6565b820191906000526020600020905b8154815290600101906020018083116105d957829003601f168201915b5050505050905090565b600061060b8261176e565b6106715760405162461bcd60e51b815260206004820152602c60248201527f4552433732313a20617070726f76656420717565727920666f72206e6f6e657860448201526b34b9ba32b73a103a37b5b2b760a11b60648201526084015b60405180910390fd5b50600090815260ff60205260409020546001600160a01b031690565b600061069882610e26565b9050806001600160a01b0316836001600160a01b031614156107065760405162461bcd60e51b815260206004820152602160248201527f4552433732313a20617070726f76616c20746f2063757272656e74206f776e656044820152603960f91b6064820152608401610668565b336001600160a01b03821614806107225750610722813361177b565b6107945760405162461bcd60e51b815260206004820152603860248201527f4552433732313a20617070726f76652063616c6c6572206973206e6f74206f7760448201527f6e6572206e6f7220617070726f76656420666f7220616c6c00000000000000006064820152608401610668565b61079e83836117aa565b505050565b600081815261028f60209081526040808320805482518185028101850190935280835260609493849084015b8282101561081e57600084815260209081902060408051808201909152908401546001600160a01b0381168252600160a01b90046001600160601b0316818301528252600190920191016107cf565b505050509050600081516001600160401b0381111561084d57634e487b7160e01b600052604160045260246000fd5b604051908082528060200260200182016040528015610876578160200160208202803683370190505b50905060005b82518110156108f7578281815181106108a557634e487b7160e01b600052603260045260246000fd5b6020026020010151602001516001600160601b03168282815181106108da57634e487b7160e01b600052603260045260246000fd5b6020908102919091010152806108ef81614dcb565b91505061087c565b509392505050565b600061090b60fc611818565b905090565b815160601c6000339050836040015160008151811061093f57634e487b7160e01b600052603260045260246000fd5b6020026020010151600001516001600160a01b0316826001600160a01b03161461099f5760405162461bcd60e51b81526020600482015260116024820152701d1bdad95b9259081a5b98dbdc9c9958dd607a1b6044820152606401610668565b836080015151846040015151146109b557600080fd5b806001600160a01b0316826001600160a01b031614806109da57506109da8282611628565b6109f65760405162461bcd60e51b815260040161066890614b0d565b6000610a0185611823565b905060005b856040015151811015610aa957600086604001518281518110610a3957634e487b7160e01b600052603260045260246000fd5b6020026020010151600001519050836001600160a01b0316816001600160a01b031614610a9657610a96818489608001518581518110610a8957634e487b7160e01b600052603260045260246000fd5b6020026020010151611a93565b5080610aa181614dcb565b915050610a06565b50610ab8848660000151611a9e565b610aca85600001518660600151611ab8565b610adc85600001518660400151611d0c565b610aee85600001518660200151611fa3565b5050505050565b610b00335b8261202d565b610b1c5760405162461bcd60e51b815260040161066890614b0d565b61079e838383612039565b600082815260976020526040902060010154610b4381336121b3565b61079e8383612217565b6001600160a01b038216600090815260fb60205260408120610b6f908361229d565b9392505050565b6001600160a01b0381163314610be65760405162461bcd60e51b815260206004820152602f60248201527f416363657373436f6e74726f6c3a2063616e206f6e6c792072656e6f756e636560448201526e103937b632b9903337b91039b2b63360891b6064820152608401610668565b610bf082826122a9565b5050565b610c0c600080516020614ec38339815191523361105e565b610c755760405162461bcd60e51b815260206004820152603460248201527f4552433732315061757365724175746f49643a206d75737420686176652070616044820152737573657220726f6c6520746f20756e706175736560601b6064820152608401610668565b610c7d612310565b565b61079e8383836040518060200160405280600081525061115f565b610ca38161176e565b610d3157606081901c338114610d115760405162461bcd60e51b815260206004820152602d60248201527f4552433732314275726e61626c653a2063616c6c6572206973206e6f74206f7760448201526c3732b916103737ba10313ab93760991b6064820152608401610668565b610bf082600090815261010560205260409020805460ff19166001179055565b610d3a33610afa565b610d9f5760405162461bcd60e51b815260206004820152603060248201527f4552433732314275726e61626c653a2063616c6c6572206973206e6f74206f7760448201526f1b995c881b9bdc88185c1c1c9bdd995960821b6064820152608401610668565b610da8816123a5565b50565b6000806108f760fc8461247b565b6033546001600160a01b03163314610de35760405162461bcd60e51b815260040161066890614ad8565b610dec81612497565b7f87cdeaffd8e70903d6ce7cc983fac3b09ca79e83818124c98e47a1d70f8027d681604051610e1b91906149e3565b60405180910390a150565b600061056782604051806060016040528060298152602001614e9a6029913960fc91906124ab565b6060610104805461057d90614d90565b60006001600160a01b038216610ec95760405162461bcd60e51b815260206004820152602a60248201527f4552433732313a2062616c616e636520717565727920666f7220746865207a65604482015269726f206164647265737360b01b6064820152608401610668565b6001600160a01b038216600090815260fb60205260409020610567906124b8565b6033546001600160a01b03163314610f145760405162461bcd60e51b815260040161066890614ad8565b610c7d60006124c2565b8251610f299061176e565b15610f3d5761079e82828560000151610c7f565b61079e8382610910565b610f5f600080516020614ec38339815191523361105e565b610fc65760405162461bcd60e51b815260206004820152603260248201527f4552433732315061757365724175746f49643a206d75737420686176652070616044820152717573657220726f6c6520746f20706175736560701b6064820152608401610668565b610c7d612514565b60606102906000838152602001908152602001600020805480602002602001604051908101604052809291908181526020016000905b8282101561105357600084815260209081902060408051808201909152908401546001600160a01b0381168252600160a01b90046001600160601b031681830152825260019092019101611004565b505050509050919050565b60009182526097602090815260408084206001600160a01b0393909316845291905290205460ff1690565b6060610102805461057d90614d90565b6001600160a01b0382163314156110f25760405162461bcd60e51b815260206004820152601960248201527f4552433732313a20617070726f766520746f2063616c6c6572000000000000006044820152606401610668565b336000818152610100602090815260408083206001600160a01b03871680855290835292819020805460ff191686151590811790915590519081529192917f17307eab39ab6107e8899845ad3d59bd9653f200f220920489ca2b5937696c31910160405180910390a35050565b611169338361202d565b6111855760405162461bcd60e51b815260040161066890614b0d565b61119184848484612591565b50505050565b600081815261028f60209081526040808320805482518185028101850190935280835260609493849084015b8282101561121257600084815260209081902060408051808201909152908401546001600160a01b0381168252600160a01b90046001600160601b0316818301528252600190920191016111c3565b505050509050600081516001600160401b0381111561124157634e487b7160e01b600052604160045260246000fd5b60405190808252806020026020018201604052801561126a578160200160208202803683370190505b50905060005b82518110156108f75782818151811061129957634e487b7160e01b600052603260045260246000fd5b6020026020010151600001518282815181106112c557634e487b7160e01b600052603260045260246000fd5b6001600160a01b0390921660209283029190910190910152806112e781614dcb565b915050611270565b60606112fa8261176e565b61135e5760405162461bcd60e51b815260206004820152602f60248201527f4552433732314d657461646174613a2055524920717565727920666f72206e6f60448201526e3732bc34b9ba32b73a103a37b5b2b760891b6064820152608401610668565b600082815261010360205260408120805461137890614d90565b80601f01602080910402602001604051908101604052809291908181526020018280546113a490614d90565b80156113f15780601f106113c6576101008083540402835291602001916113f1565b820191906000526020600020905b8154815290600101906020018083116113d457829003601f168201915b505050505090506000611402610e4e565b9050805160001415611415575092915050565b81511561142e5761142681836125c4565b949350505050565b80611438856126bd565b60405160200161144992919061484a565b60405160208183030381529060405292505050919050565b600054610100900460ff1661147c5760005460ff1615611480565b303b155b61149c5760405162461bcd60e51b815260040161066890614a48565b600054610100900460ff161580156114be576000805461ffff19166101011790555b6114cc8787878787876127d6565b7f446382c266714426ea55073f064f604e568749de3e753e16cc34b2fe141dd2903388886040516114ff93929190614921565b60405180910390a18015611519576000805461ff00191690555b50505050505050565b60008281526097602052604090206001015461153e81336121b3565b61079e83836122a9565b336001600160a01b0383161461158e5760405162461bcd60e51b815260206004820152600b60248201526a1b9bdd08185b1b1bddd95960aa1b6044820152606401610668565b61079e838383612870565b6102c380546115a790614d90565b80601f01602080910402602001604051908101604052809291908181526020018280546115d390614d90565b80156116205780601f106115f557610100808354040283529160200191611620565b820191906000526020600020905b81548152906001019060200180831161160357829003601f168201915b505050505081565b6000610b6f838361294e565b6033546001600160a01b0316331461165e5760405162461bcd60e51b815260040161066890614ad8565b6001600160a01b0381166116c35760405162461bcd60e51b815260206004820152602660248201527f4f776e61626c653a206e6577206f776e657220697320746865207a65726f206160448201526564647265737360d01b6064820152608401610668565b610da8816124c2565b60006001600160e01b03198216638486f69f60e01b14806116fd57506001600160e01b03198216632dde656160e21b145b8061171857506001600160e01b031982166301ffc9a760e01b145b8061173357506001600160e01b031982166380ac58cd60e01b145b8061174e57506001600160e01b03198216635b5e139f60e01b145b8061056757506001600160e01b0319821663780e9d6360e01b1492915050565b600061056760fc8361297b565b6001600160a01b0391821660009081526101006020908152604080832093909416825291909152205460ff1690565b600081815260ff6020526040902080546001600160a01b0319166001600160a01b03841690811790915581906117df82610e26565b6001600160a01b03167f8c5be1e5ebec7d5bd14f71427d1e84f3dd0314c0f7b2291e5b200ac8c7c3b92560405160405180910390a45050565b600061056782612987565b6000808260600151516001600160401b0381111561185157634e487b7160e01b600052604160045260246000fd5b60405190808252806020026020018201604052801561187a578160200160208202803683370190505b50905060005b8360600151518110156118fe576118c1846060015182815181106118b457634e487b7160e01b600052603260045260246000fd5b6020026020010151612992565b8282815181106118e157634e487b7160e01b600052603260045260246000fd5b6020908102919091010152806118f681614dcb565b915050611880565b5060008360400151516001600160401b0381111561192c57634e487b7160e01b600052604160045260246000fd5b604051908082528060200260200182016040528015611955578160200160208202803683370190505b50905060005b8460400151518110156119cc5761198f856040015182815181106118b457634e487b7160e01b600052603260045260246000fd5b8282815181106119af57634e487b7160e01b600052603260045260246000fd5b6020908102919091010152806119c481614dcb565b91505061195b565b507ff64326045af5fd7e15297ba939f85b550474d3899daa47d2bc1ffbdb9ced344e846000015185602001518051906020012083604051602001611a1091906147f8565b6040516020818303038152906040528051906020012085604051602001611a3791906147f8565b60408051601f198184030181528282528051602091820120908301969096528101939093526060830191909152608082015260a081019190915260c0016040516020818303038152906040528051906020012092505050919050565b61079e838383612a0e565b610bf0828260405180602001604052806000815250612b8d565b6000805b8251811015611ca25760006001600160a01b0316838281518110611af057634e487b7160e01b600052603260045260246000fd5b6020026020010151600001516001600160a01b03161415611b535760405162461bcd60e51b815260206004820152601b60248201527f526563697069656e742073686f756c642062652070726573656e7400000000006044820152606401610668565b828181518110611b7357634e487b7160e01b600052603260045260246000fd5b6020026020010151602001516001600160601b031660001415611bd85760405162461bcd60e51b815260206004820181905260248201527f526f79616c74792076616c75652073686f756c6420626520706f7369746976656044820152606401610668565b828181518110611bf857634e487b7160e01b600052603260045260246000fd5b6020026020010151602001516001600160601b031682611c189190614cc8565b915061028f6000858152602001908152602001600020838281518110611c4e57634e487b7160e01b600052603260045260246000fd5b6020908102919091018101518254600181018455600093845292829020815191909201516001600160601b0316600160a01b026001600160a01b039091161791015580611c9a81614dcb565b915050611abc565b506127108110611d025760405162461bcd60e51b815260206004820152602560248201527f526f79616c747920746f74616c2076616c75652073686f756c64206265203c20604482015264031303030360dc1b6064820152608401610668565b61079e8383612bc0565b60008281526102906020526040812090805b8351811015611efb5760006001600160a01b0316848281518110611d5257634e487b7160e01b600052603260045260246000fd5b6020026020010151600001516001600160a01b03161415611db55760405162461bcd60e51b815260206004820152601960248201527f4163636f756e742073686f756c642062652070726573656e74000000000000006044820152606401610668565b838181518110611dd557634e487b7160e01b600052603260045260246000fd5b6020026020010151602001516001600160601b031660001415611e3a5760405162461bcd60e51b815260206004820181905260248201527f43726561746f722073686172652073686f756c6420626520706f7369746976656044820152606401610668565b82848281518110611e5b57634e487b7160e01b600052603260045260246000fd5b6020908102919091018101518254600181018455600093845292829020815191909201516001600160601b0316600160a01b026001600160a01b03909116179101558351611ee790859083908110611ec357634e487b7160e01b600052603260045260246000fd5b6020026020010151602001516001600160601b031683612d8890919063ffffffff16565b915080611ef381614dcb565b915050611d1e565b508061271014611f645760405162461bcd60e51b815260206004820152602e60248201527f746f74616c20616d6f756e74206f662063726561746f7273207368617265207360448201526d0686f756c642062652031303030360941b6064820152608401610668565b7f841ffb90d4cabdd1f16034f3fa831d79060febbb8167bdd54a49269365bdf78f8484604051611f95929190614c12565b60405180910390a150505050565b611fac8261176e565b61200d5760405162461bcd60e51b815260206004820152602c60248201527f4552433732314d657461646174613a2055524920736574206f66206e6f6e657860448201526b34b9ba32b73a103a37b5b2b760a11b6064820152608401610668565b600082815261010360209081526040909120825161079e9284019061407d565b6000610b6f8383612d94565b826001600160a01b031661204c82610e26565b6001600160a01b0316146120b45760405162461bcd60e51b815260206004820152602960248201527f4552433732313a207472616e73666572206f6620746f6b656e2074686174206960448201526839903737ba1037bbb760b91b6064820152608401610668565b6001600160a01b0382166121165760405162461bcd60e51b8152602060048201526024808201527f4552433732313a207472616e7366657220746f20746865207a65726f206164646044820152637265737360e01b6064820152608401610668565b612121838383612dc1565b61212c6000826117aa565b6001600160a01b038316600090815260fb6020526040902061214e9082612dcc565b506001600160a01b038216600090815260fb602052604090206121719082612dd8565b5061217e60fc8284612de4565b5080826001600160a01b0316846001600160a01b0316600080516020614ee383398151915260405160405180910390a4505050565b6121bd828261105e565b610bf0576121d5816001600160a01b03166014612dfa565b6121e0836020612dfa565b6040516020016121f1929190614879565b60408051601f198184030181529082905262461bcd60e51b8252610668916004016149e3565b612221828261105e565b610bf05760008281526097602090815260408083206001600160a01b03851684529091529020805460ff191660011790556122593390565b6001600160a01b0316816001600160a01b0316837f2f8788117e7eff1d82e926ec794901d17c78024a50270940304540a733656f0d60405160405180910390a45050565b6000610b6f8383612fdb565b6122b3828261105e565b15610bf05760008281526097602090815260408083206001600160a01b0385168085529252808320805460ff1916905551339285917ff6391f5c32d9c69d2a47ea670b442974b53935d1edc7fd64eb21e047a839171b9190a45050565b6101935460ff1661235a5760405162461bcd60e51b815260206004820152601460248201527314185d5cd8589b194e881b9bdd081c185d5cd95960621b6044820152606401610668565b610193805460ff191690557f5db9ee0a495bf2e6ff9c91a7834c1ba4fdd244a5e8aa4e537bd38aeae4b073aa335b6040516001600160a01b03909116815260200160405180910390a1565b60006123b082610e26565b90506123be81600084612dc1565b6123c96000836117aa565b60008281526101036020526040902080546123e390614d90565b1590506124025760008281526101036020526040812061240291614101565b6001600160a01b038116600090815260fb602052604090206124249083612dcc565b5061243060fc83613013565b5061245182600090815261010560205260409020805460ff19166001179055565b60405182906000906001600160a01b03841690600080516020614ee3833981519152908390a45050565b600080808061248a868661301f565b9097909650945050505050565b8051610bf09061010490602084019061407d565b600061142684848461304a565b6000610567825490565b603380546001600160a01b038381166001600160a01b0319831681179093556040519116919082907f8be0079c531659141344cd1fd0a4f28419497f9722a3daafe3b4186f6b6457e090600090a35050565b6101935460ff161561255b5760405162461bcd60e51b815260206004820152601060248201526f14185d5cd8589b194e881c185d5cd95960821b6044820152606401610668565b610193805460ff191660011790557f62e78cea01bee320cd4e420270b5ea74000d11b0c9f74754ebdbfc544b05a2586123883390565b61259c848484612039565b6125a884848484613096565b6111915760405162461bcd60e51b8152600401610668906149f6565b805182516060918491849110156126005784846040516020016125e892919061484a565b60405160208183030381529060405292505050610567565b60005b82518110156126b35782818151811061262c57634e487b7160e01b600052603260045260246000fd5b602001015160f81c60f81b6001600160f81b03191682828151811061266157634e487b7160e01b600052603260045260246000fd5b01602001516001600160f81b031916146126a157858560405160200161268892919061484a565b6040516020818303038152906040529350505050610567565b806126ab81614dcb565b915050612603565b5092949350505050565b6060816126e15750506040805180820190915260018152600360fc1b602082015290565b8160005b811561270b57806126f581614dcb565b91506127049050600a83614ce0565b91506126e5565b6000816001600160401b0381111561273357634e487b7160e01b600052604160045260246000fd5b6040519080825280601f01601f19166020018201604052801561275d576020820181803683370190505b5090505b841561142657612772600183614d13565b915061277f600a86614de6565b61278a906030614cc8565b60f81b8183815181106127ad57634e487b7160e01b600052603260045260246000fd5b60200101906001600160f81b031916908160001a9053506127cf600a86614ce0565b9450612761565b6127df84612497565b6127e7613167565b6127ef6131d8565b6127f7613245565b6127ff613245565b612807613245565b61280f613245565b61281761326c565b61281f613167565b61282761329c565b61282f613245565b6128376132d0565b6128408361336f565b612848613406565b6128528686613486565b61285d826001613553565b612868816001613553565b505050505050565b600083815261028f6020526040812054905b81811015610aee57600085815261028f6020526040902080546001600160a01b0386169190839081106128c557634e487b7160e01b600052603260045260246000fd5b6000918252602090912001546001600160a01b0316141561293c57600085815261028f6020526040902080548491908390811061291257634e487b7160e01b600052603260045260246000fd5b600091825260209091200180546001600160a01b0319166001600160a01b03929092169190911790555b8061294681614dcb565b915050612882565b6001600160a01b038116600090815261012e602052604081205460ff1680610b6f5750610b6f838361177b565b6000610b6f83836135b3565b6000610567826124b8565b80516020808301516040516000936129f1937f397e04204c1e1a60ee8724b71f8244e10ab5f2e9009854d80f602bda21b59ebb939192019283526001600160a01b039190911660208301526001600160601b0316604082015260600190565b604051602081830303815290604052805190602001209050919050565b6000612a19836135bf565b90506000825160411415612a3457612a31828461360d565b90505b846001600160a01b0316816001600160a01b031614610aee576001600160a01b0385163b15612b4257604051630b135d3f60e11b808252906001600160a01b03871690631626ba7e90612a8d90869088906004016149ca565b60206040518083038186803b158015612aa557600080fd5b505afa158015612ab9573d6000803e3d6000fd5b505050506040513d601f19601f82011682018060405250810190612add9190614566565b6001600160e01b031916146040518060400160405280601c81526020017f7369676e617475726520766572696669636174696f6e206572726f720000000081525090612b3c5760405162461bcd60e51b815260040161066891906149e3565b50610aee565b604080518082018252601c81527f7369676e617475726520766572696669636174696f6e206572726f72000000006020820152905162461bcd60e51b815261066891906004016149e3565b612b978383613688565b612ba46000848484613096565b61079e5760405162461bcd60e51b8152600401610668906149f6565b600081516001600160401b03811115612be957634e487b7160e01b600052604160045260246000fd5b604051908082528060200260200182016040528015612c12578160200160208202803683370190505b509050600082516001600160401b03811115612c3e57634e487b7160e01b600052604160045260246000fd5b604051908082528060200260200182016040528015612c67578160200160208202803683370190505b50905060005b8351811015612d5457838181518110612c9657634e487b7160e01b600052603260045260246000fd5b602002602001015160000151838281518110612cc257634e487b7160e01b600052603260045260246000fd5b60200260200101906001600160a01b031690816001600160a01b031681525050838181518110612d0257634e487b7160e01b600052603260045260246000fd5b6020026020010151602001516001600160601b0316828281518110612d3757634e487b7160e01b600052603260045260246000fd5b602090810291909101015280612d4c81614dcb565b915050612c6d565b507f99aba1d63749cfd5ad1afda7c4663840924d54eb5f005bbbeadedc6ec13674b2848383604051611f9593929190614ba9565b6000610b6f8284614cc8565b6001600160a01b038216600090815261012e602052604081205460ff1680610b6f5750610b6f8383613692565b61079e838383613754565b6000610b6f83836137bc565b6000610b6f83836138d9565b600061142684846001600160a01b038516613928565b60606000612e09836002614cf4565b612e14906002614cc8565b6001600160401b03811115612e3957634e487b7160e01b600052604160045260246000fd5b6040519080825280601f01601f191660200182016040528015612e63576020820181803683370190505b509050600360fc1b81600081518110612e8c57634e487b7160e01b600052603260045260246000fd5b60200101906001600160f81b031916908160001a905350600f60fb1b81600181518110612ec957634e487b7160e01b600052603260045260246000fd5b60200101906001600160f81b031916908160001a9053506000612eed846002614cf4565b612ef8906001614cc8565b90505b6001811115612f8c576f181899199a1a9b1b9c1cb0b131b232b360811b85600f1660108110612f3a57634e487b7160e01b600052603260045260246000fd5b1a60f81b828281518110612f5e57634e487b7160e01b600052603260045260246000fd5b60200101906001600160f81b031916908160001a90535060049490941c93612f8581614d79565b9050612efb565b508315610b6f5760405162461bcd60e51b815260206004820181905260248201527f537472696e67733a20686578206c656e67746820696e73756666696369656e746044820152606401610668565b600082600001828154811061300057634e487b7160e01b600052603260045260246000fd5b9060005260206000200154905092915050565b6000610b6f8383613945565b6000808061302d858561229d565b600081815260029690960160205260409095205494959350505050565b60008281526002840160205260408120548015158061306e575061306e85856135b3565b839061308d5760405162461bcd60e51b815260040161066891906149e3565b50949350505050565b60006001600160a01b0384163b6130af57506001611426565b6000613130630a85bd0160e11b338887876040516024016130d394939291906148ee565b604051602081830303815290604052906001600160e01b0319166020820180516001600160e01b038381831617835250505050604051806060016040528060328152602001614e68603291396001600160a01b0388169190613962565b90506000818060200190518101906131489190614566565b6001600160e01b031916630a85bd0160e11b1492505050949350505050565b600054610100900460ff166131825760005460ff1615613186565b303b155b6131a25760405162461bcd60e51b815260040161066890614a48565b600054610100900460ff161580156131c4576000805461ffff19166101011790555b8015610da8576000805461ff001916905550565b600054610100900460ff166131f35760005460ff16156131f7565b303b155b6132135760405162461bcd60e51b815260040161066890614a48565b600054610100900460ff16158015613235576000805461ffff19166101011790555b6131c4632dde656160e21b613971565b600054610100900460ff16610c7d5760405162461bcd60e51b815260040161066890614b5e565b600054610100900460ff166132935760405162461bcd60e51b815260040161066890614b5e565b610c7d336124c2565b600054610100900460ff166132c35760405162461bcd60e51b815260040161066890614b5e565b610193805460ff19169055565b600054610100900460ff166132eb5760005460ff16156132ef565b303b155b61330b5760405162461bcd60e51b815260040161066890614a48565b600054610100900460ff1615801561332d576000805461ffff19166101011790555b6131c4604051806040016040528060078152602001664d696e7437323160c81b815250604051806040016040528060018152602001603160f81b8152506139f0565b600054610100900460ff1661338a5760005460ff161561338e565b303b155b6133aa5760405162461bcd60e51b815260040161066890614a48565b600054610100900460ff161580156133cc576000805461ffff19166101011790555b81516133e0906102c390602085019061407d565b506133f163e8a3d48560e01b613971565b8015610bf0576000805461ff00191690555050565b600054610100900460ff166134215760005460ff1615613425565b303b155b6134415760405162461bcd60e51b815260040161066890614a48565b600054610100900460ff16158015613463576000805461ffff19166101011790555b61346e600033613a33565b6131c4600080516020614ec383398151915233613a33565b600054610100900460ff166134a15760005460ff16156134a5565b303b155b6134c15760405162461bcd60e51b815260040161066890614a48565b600054610100900460ff161580156134e3576000805461ffff19166101011790555b82516134f79061010190602086019061407d565b50815161350c9061010290602085019061407d565b5061351d6380ac58cd60e01b613971565b61352d635b5e139f60e01b613971565b61353d63780e9d6360e01b613971565b801561079e576000805461ff0019169055505050565b6001600160a01b038216600081815261012e6020908152604091829020805460ff191685151590811790915591519182527f270dbb8ba4292910ae92862466486be25c355c837270a3d8824b36a8bc7c653b910160405180910390a25050565b6000610b6f8383613a3d565b60006105676135cc613a55565b8360405161190160f01b6020820152602281018390526042810182905260009060620160405160208183030381529060405280519060200120905092915050565b600081516041146136605760405162461bcd60e51b815260206004820152601f60248201527f45434453413a20696e76616c6964207369676e6174757265206c656e677468006044820152606401610668565b60208201516040830151606084015160001a61367e86828585613ad2565b9695505050505050565b610bf08282613d08565b600061369d8261176e565b6136fe5760405162461bcd60e51b815260206004820152602c60248201527f4552433732313a206f70657261746f7220717565727920666f72206e6f6e657860448201526b34b9ba32b73a103a37b5b2b760a11b6064820152608401610668565b600061370983610e26565b9050806001600160a01b0316846001600160a01b031614806137445750836001600160a01b031661373984610600565b6001600160a01b0316145b806114265750611426818561177b565b6101935460ff161561079e5760405162461bcd60e51b815260206004820152602b60248201527f4552433732315061757361626c653a20746f6b656e207472616e73666572207760448201526a1a1a5b19481c185d5cd95960aa1b6064820152608401610668565b600081815260018301602052604081205480156138cf5760006137e0600183614d13565b85549091506000906137f490600190614d13565b905081811461387557600086600001828154811061382257634e487b7160e01b600052603260045260246000fd5b906000526020600020015490508087600001848154811061385357634e487b7160e01b600052603260045260246000fd5b6000918252602080832090910192909255918252600188019052604090208390555b855486908061389457634e487b7160e01b600052603160045260246000fd5b600190038181906000526020600020016000905590558560010160008681526020019081526020016000206000905560019350505050610567565b6000915050610567565b600081815260018301602052604081205461392057508154600181810184556000848152602080822090930184905584548482528286019093526040902091909155610567565b506000610567565b600082815260028401602052604081208290556114268484612dd8565b60008181526002830160205260408120819055610b6f8383612dcc565b60606114268484600085613ee1565b6001600160e01b031980821614156139cb5760405162461bcd60e51b815260206004820152601c60248201527f4552433136353a20696e76616c696420696e74657266616365206964000000006044820152606401610668565b6001600160e01b031916600090815260c960205260409020805460ff19166001179055565b600054610100900460ff16613a175760405162461bcd60e51b815260040161066890614b5e565b8151602092830120815191909201206101f7919091556101f855565b610bf08282612217565b60008181526001830160205260408120541515610b6f565b600061090b7f8b73c3c69bb8fe3d512ecc4cf759cc79239f7b179b0ffacaa9a75d522b39400f613a856101f75490565b6101f8546040805160208101859052908101839052606081018290524660808201523060a082015260009060c0016040516020818303038152906040528051906020012090509392505050565b60007f7fffffffffffffffffffffffffffffff5d576e7357a4501ddfe92f46681b20a0821115613b4f5760405162461bcd60e51b815260206004820152602260248201527f45434453413a20696e76616c6964207369676e6174757265202773272076616c604482015261756560f01b6064820152608401610668565b6000601e8560ff161115613c1857613b68600486614d2a565b60ff16601b1480613b865750613b7f600486614d2a565b60ff16601c145b613ba25760405162461bcd60e51b815260040161066890614a96565b6001613bad87614009565b613bb8600488614d2a565b6040805160008152602081018083529390935260ff90911690820152606081018690526080810185905260a0016020604051602081039080840390855afa158015613c07573d6000803e3d6000fd5b505050602060405103519050613ca9565b8460ff16601b1480613c2d57508460ff16601c145b613c495760405162461bcd60e51b815260040161066890614a96565b60408051600081526020810180835288905260ff871691810191909152606081018590526080810184905260019060a0016020604051602081039080840390855afa158015613c9c573d6000803e3d6000fd5b5050506020604051035190505b6001600160a01b038116613cff5760405162461bcd60e51b815260206004820152601860248201527f45434453413a20696e76616c6964207369676e617475726500000000000000006044820152606401610668565b95945050505050565b6001600160a01b038216613d5e5760405162461bcd60e51b815260206004820181905260248201527f4552433732313a206d696e7420746f20746865207a65726f20616464726573736044820152606401610668565b6000818152610105602052604090205460ff1615613db55760405162461bcd60e51b81526020600482015260146024820152731d1bdad95b88185b1c9958591e48189d5c9b995960621b6044820152606401610668565b613dbe8161176e565b15613e0b5760405162461bcd60e51b815260206004820152601c60248201527f4552433732313a20746f6b656e20616c7265616479206d696e746564000000006044820152606401610668565b613e1760008383612dc1565b6001600160a01b038216600090815260fb60205260409020613e399082612dd8565b50613e4660fc8284612de4565b50606081901c6001600160a01b0383168114613eb65760405182906001600160a01b03831690600090600080516020614ee3833981519152908290a481836001600160a01b0316826001600160a01b0316600080516020614ee383398151915260405160405180910390a4505050565b60405182906001600160a01b03851690600090600080516020614ee3833981519152908290a4505050565b606082471015613f425760405162461bcd60e51b815260206004820152602660248201527f416464726573733a20696e73756666696369656e742062616c616e636520666f6044820152651c8818d85b1b60d21b6064820152608401610668565b843b613f905760405162461bcd60e51b815260206004820152601d60248201527f416464726573733a2063616c6c20746f206e6f6e2d636f6e74726163740000006044820152606401610668565b600080866001600160a01b03168587604051613fac919061482e565b60006040518083038185875af1925050503d8060008114613fe9576040519150601f19603f3d011682016040523d82523d6000602084013e613fee565b606091505b5091509150613ffe828286614044565b979650505050505050565b6040517f19457468657265756d205369676e6564204d6573736167653a0a3332000000006020820152603c8101829052600090605c016129f1565b60608315614053575081610b6f565b8251156140635782518084602001fd5b8160405162461bcd60e51b815260040161066891906149e3565b82805461408990614d90565b90600052602060002090601f0160209004810192826140ab57600085556140f1565b82601f106140c457805160ff19168380011785556140f1565b828001600101855582156140f1579182015b828111156140f15782518255916020019190600101906140d6565b506140fd929150614137565b5090565b50805461410d90614d90565b6000825580601f1061411d575050565b601f016020900490600052602060002090810190610da891905b5b808211156140fd5760008155600101614138565b803561415781614e3c565b919050565b600082601f83011261416c578081fd5b8135602061418161417c83614ca5565b614c75565b80838252828201915082860187848660051b89010111156141a0578586fd5b855b858110156141e05781356001600160401b038111156141bf578788fd5b6141cd8a87838c010161428a565b85525092840192908401906001016141a2565b5090979650505050505050565b600082601f8301126141fd578081fd5b8135602061420d61417c83614ca5565b80838252828201915082860187848660061b890101111561422c578586fd5b855b858110156141e057604080838b031215614246578788fd5b61424e614c2b565b833561425981614e3c565b8152838701356001600160601b038116811461427357898afd5b81880152855293850193919091019060010161422e565b600082601f83011261429a578081fd5b81356001600160401b038111156142b3576142b3614e26565b6142c6601f8201601f1916602001614c75565b8181528460208386010111156142da578283fd5b816020850160208301379081016020019190915292915050565b600060a08284031215614305578081fd5b61430d614c53565b90508135815260208201356001600160401b038082111561432d57600080fd5b6143398583860161428a565b6020840152604084013591508082111561435257600080fd5b61435e858386016141ed565b6040840152606084013591508082111561437757600080fd5b614383858386016141ed565b6060840152608084013591508082111561439c57600080fd5b506143a98482850161415c565b60808301525092915050565b6000602082840312156143c6578081fd5b8135610b6f81614e3c565b600080604083850312156143e3578081fd5b82356143ee81614e3c565b915060208301356143fe81614e3c565b809150509250929050565b60008060006060848603121561441d578081fd5b833561442881614e3c565b9250602084013561443881614e3c565b929592945050506040919091013590565b6000806000806080858703121561445e578081fd5b843561446981614e3c565b9350602085013561447981614e3c565b92506040850135915060608501356001600160401b0381111561449a578182fd5b6144a68782880161428a565b91505092959194509250565b600080604083850312156144c4578182fd5b82356144cf81614e3c565b9150602083013580151581146143fe578182fd5b600080604083850312156144f5578182fd5b823561450081614e3c565b946020939093013593505050565b60006020828403121561451f578081fd5b5035919050565b60008060408385031215614538578182fd5b8235915060208301356143fe81614e3c565b60006020828403121561455b578081fd5b8135610b6f81614e51565b600060208284031215614577578081fd5b8151610b6f81614e51565b600060208284031215614593578081fd5b81356001600160401b038111156145a8578182fd5b6114268482850161428a565b60008060008060008060c087890312156145cc578384fd5b86356001600160401b03808211156145e2578586fd5b6145ee8a838b0161428a565b97506020890135915080821115614603578586fd5b61460f8a838b0161428a565b96506040890135915080821115614624578586fd5b6146308a838b0161428a565b95506060890135915080821115614645578384fd5b5061465289828a0161428a565b9350506146616080880161414c565b915061466f60a0880161414c565b90509295509295509295565b6000806040838503121561468d578182fd5b82356001600160401b038111156146a2578283fd5b6146ae858286016142f4565b92505060208301356143fe81614e3c565b6000806000606084860312156146d3578081fd5b83356001600160401b038111156146e8578182fd5b6146f4868287016142f4565b935050602084013561470581614e3c565b9150604084013561471581614e3c565b809150509250925092565b600080600060608486031215614734578081fd5b83359250602084013561470581614e3c565b6000815180845260208085019450808401835b8381101561479257815180516001600160a01b031688528301516001600160601b03168388015260409096019590820190600101614759565b509495945050505050565b6000815180845260208085019450808401835b83811015614792578151875295820195908201906001016147b0565b600081518084526147e4816020860160208601614d4d565b601f01601f19169290920160200192915050565b815160009082906020808601845b8381101561482257815185529382019390820190600101614806565b50929695505050505050565b60008251614840818460208701614d4d565b9190910192915050565b6000835161485c818460208801614d4d565b835190830190614870818360208801614d4d565b01949350505050565b7f416363657373436f6e74726f6c3a206163636f756e74200000000000000000008152600083516148b1816017850160208801614d4d565b7001034b99036b4b9b9b4b733903937b6329607d1b60179184019182015283516148e2816028840160208801614d4d565b01602801949350505050565b6001600160a01b038581168252841660208201526040810183905260806060820181905260009061367e908301846147cc565b6001600160a01b0384168152606060208201819052600090614945908301856147cc565b828103604084015261367e81856147cc565b6020808252825182820181905260009190848201906040850190845b818110156149985783516001600160a01b031683529284019291840191600101614973565b50909695505050505050565b602081526000610b6f6020830184614746565b602081526000610b6f602083018461479d565b82815260406020820152600061142660408301846147cc565b602081526000610b6f60208301846147cc565b60208082526032908201527f4552433732313a207472616e7366657220746f206e6f6e20455243373231526560408201527131b2b4bb32b91034b6b83632b6b2b73a32b960711b606082015260800190565b6020808252602e908201527f496e697469616c697a61626c653a20636f6e747261637420697320616c72656160408201526d191e481a5b9a5d1a585b1a5e995960921b606082015260800190565b60208082526022908201527f45434453413a20696e76616c6964207369676e6174757265202776272076616c604082015261756560f01b606082015260800190565b6020808252818101527f4f776e61626c653a2063616c6c6572206973206e6f7420746865206f776e6572604082015260600190565b60208082526031908201527f4552433732313a207472616e736665722063616c6c6572206973206e6f74206f6040820152701ddb995c881b9bdc88185c1c1c9bdd9959607a1b606082015260800190565b6020808252602b908201527f496e697469616c697a61626c653a20636f6e7472616374206973206e6f74206960408201526a6e697469616c697a696e6760a81b606082015260800190565b60006060820185835260206060818501528186518084526080860191508288019350845b81811015614bf25784516001600160a01b031683529383019391830191600101614bcd565b50508481036040860152614c06818761479d565b98975050505050505050565b8281526040602082015260006114266040830184614746565b604080519081016001600160401b0381118282101715614c4d57614c4d614e26565b60405290565b60405160a081016001600160401b0381118282101715614c4d57614c4d614e26565b604051601f8201601f191681016001600160401b0381118282101715614c9d57614c9d614e26565b604052919050565b60006001600160401b03821115614cbe57614cbe614e26565b5060051b60200190565b60008219821115614cdb57614cdb614dfa565b500190565b600082614cef57614cef614e10565b500490565b6000816000190483118215151615614d0e57614d0e614dfa565b500290565b600082821015614d2557614d25614dfa565b500390565b600060ff821660ff841680821015614d4457614d44614dfa565b90039392505050565b60005b83811015614d68578181015183820152602001614d50565b838111156111915750506000910152565b600081614d8857614d88614dfa565b506000190190565b600181811c90821680614da457607f821691505b60208210811415614dc557634e487b7160e01b600052602260045260246000fd5b50919050565b6000600019821415614ddf57614ddf614dfa565b5060010190565b600082614df557614df5614e10565b500690565b634e487b7160e01b600052601160045260246000fd5b634e487b7160e01b600052601260045260246000fd5b634e487b7160e01b600052604160045260246000fd5b6001600160a01b0381168114610da857600080fd5b6001600160e01b031981168114610da857600080fdfe4552433732313a207472616e7366657220746f206e6f6e20455243373231526563656976657220696d706c656d656e7465724552433732313a206f776e657220717565727920666f72206e6f6e6578697374656e7420746f6b656e65d7a28e3265b37a6474929f336521b332c1681b933f6cb9f3376673440d862addf252ad1be2c89b69c2b068fc378daa952ba7f163c4a11628f55a4df523b3efa26469706673582212201b0a39303030d0b3dcc7ab46b3d053c6412f8766e70368da1e02a840af64d83a64736f6c63430008040033",
  "immutableReferences": {},
  "source": "// SPDX-License-Identifier: UNLICENSED\r\n\r\npragma solidity ^0.8.4;\r\n\r\nimport \"./ERC721Base.sol\";\r\n\r\ncontract ERC721MadNft is ERC721Base {\r\n\r\n    event CreateERC721MadNft(address owner, string name, string symbol);\r\n\r\n    function __ERC721MadNft_init(\r\n        string memory _name,\r\n        string memory _symbol,\r\n        string memory baseURI,\r\n        string memory contractURI,\r\n        address transferProxy,\r\n        address lazyTransferProxy\r\n    ) external initializer {\r\n        __ERC721MadNft_init_unchained(_name, _symbol, baseURI, contractURI, transferProxy, lazyTransferProxy);\r\n        emit CreateERC721MadNft(_msgSender(), _name, _symbol);\r\n    }\r\n\r\n    function __ERC721MadNft_init_unchained(\r\n        string memory _name, \r\n        string memory _symbol, \r\n        string memory baseURI, \r\n        string memory contractURI, \r\n        address transferProxy, \r\n        address lazyTransferProxy\r\n    ) internal {\r\n        _setBaseURI(baseURI);\r\n        __ERC721Lazy_init_unchained();\r\n        __RoyaltiesUpgradeable_init_unchained();\r\n        __Context_init_unchained();\r\n        __ERC165_init_unchained();\r\n        __ERC165Storage_init_unchained();\r\n        __AccessControl_init_unchained();\r\n        __Ownable_init_unchained();\r\n        __ERC721Burnable_init_unchained();\r\n        __Pausable_init_unchained();\r\n        __ERC721Pausable_init_unchained();\r\n        __Mint721Validator_init_unchained();\r\n        __HasContractURI_init_unchained(contractURI);\r\n        __ERC721Base_init_unchained();\r\n        __ERC721_init_unchained(_name, _symbol);\r\n\r\n        //setting default approver for transferProxies\r\n        _setDefaultApproval(transferProxy, true);\r\n        _setDefaultApproval(lazyTransferProxy, true);\r\n    }\r\n\r\n    uint256[50] private __gap;\r\n}\r\n",
  "sourcePath": "E:\\Blockchain\\ETHEREUM\\Projects\\madinart\\03_Src\\My-Test\\madnfts-contract-truffle\\contracts\\erc-721\\ERC721MadNft.sol",
  "compiler": {
    "name": "solc",
    "version": "0.8.4+commit.c7e474f2.Emscripten.clang"
  },
  "schemaVersion": "3.4.3",
  "updatedAt": "2022-05-19T14:45:59.451Z",
  "devdoc": {
    "kind": "dev",
    "methods": {
      "approve(address,uint256)": {
        "details": "See {IERC721-approve}."
      },
      "balanceOf(address)": {
        "details": "See {IERC721-balanceOf}."
      },
      "baseURI()": {
        "details": "Returns the base URI set via {_setBaseURI}. This will be automatically added as a prefix in {tokenURI} to each token's URI, or to the token ID if no specific URI is set for that token ID."
      },
      "burn(uint256)": {
        "details": "Burns `tokenId`. See {ERC721-_burn}. Requirements: - The caller must own `tokenId` or be an approved operator."
      },
      "getApproved(uint256)": {
        "details": "See {IERC721-getApproved}."
      },
      "getRoleAdmin(bytes32)": {
        "details": "Returns the admin role that controls `role`. See {grantRole} and {revokeRole}. To change a role's admin, use {_setRoleAdmin}."
      },
      "grantRole(bytes32,address)": {
        "details": "Grants `role` to `account`. If `account` had not been already granted `role`, emits a {RoleGranted} event. Requirements: - the caller must have ``role``'s admin role."
      },
      "hasRole(bytes32,address)": {
        "details": "Returns `true` if `account` has been granted `role`."
      },
      "name()": {
        "details": "See {IERC721Metadata-name}."
      },
      "owner()": {
        "details": "Returns the address of the current owner."
      },
      "ownerOf(uint256)": {
        "details": "See {IERC721-ownerOf}."
      },
      "pause()": {
        "details": "Pauses all token transfers. See {ERC721Pausable} and {Pausable-_pause}. Requirements: - the caller must have the `PAUSER_ROLE`."
      },
      "paused()": {
        "details": "Returns true if the contract is paused, and false otherwise."
      },
      "renounceOwnership()": {
        "details": "Leaves the contract without owner. It will not be possible to call `onlyOwner` functions anymore. Can only be called by the current owner. NOTE: Renouncing ownership will leave the contract without an owner, thereby removing any functionality that is only available to the owner."
      },
      "renounceRole(bytes32,address)": {
        "details": "Revokes `role` from the calling account. Roles are often managed via {grantRole} and {revokeRole}: this function's purpose is to provide a mechanism for accounts to lose their privileges if they are compromised (such as when a trusted device is misplaced). If the calling account had been revoked `role`, emits a {RoleRevoked} event. Requirements: - the caller must be `account`."
      },
      "revokeRole(bytes32,address)": {
        "details": "Revokes `role` from `account`. If `account` had been granted `role`, emits a {RoleRevoked} event. Requirements: - the caller must have ``role``'s admin role."
      },
      "safeTransferFrom(address,address,uint256)": {
        "details": "See {IERC721-safeTransferFrom}."
      },
      "safeTransferFrom(address,address,uint256,bytes)": {
        "details": "See {IERC721-safeTransferFrom}."
      },
      "setApprovalForAll(address,bool)": {
        "details": "See {IERC721-setApprovalForAll}."
      },
      "symbol()": {
        "details": "See {IERC721Metadata-symbol}."
      },
      "tokenByIndex(uint256)": {
        "details": "See {IERC721Enumerable-tokenByIndex}."
      },
      "tokenOfOwnerByIndex(address,uint256)": {
        "details": "See {IERC721Enumerable-tokenOfOwnerByIndex}."
      },
      "tokenURI(uint256)": {
        "details": "See {IERC721Metadata-tokenURI}."
      },
      "totalSupply()": {
        "details": "See {IERC721Enumerable-totalSupply}."
      },
      "transferFrom(address,address,uint256)": {
        "details": "See {IERC721-transferFrom}."
      },
      "transferOwnership(address)": {
        "details": "Transfers ownership of the contract to a new account (`newOwner`). Can only be called by the current owner."
      },
      "unpause()": {
        "details": "Unpauses all token transfers. See {ERC721Pausable} and {Pausable-_unpause}. Requirements: - the caller must have the `PAUSER_ROLE`."
      }
    },
    "version": 1
  },
  "userdoc": {
    "kind": "user",
    "methods": {},
    "version": 1
  }
}